{
  "contractName": "ListaDeTarefas",
  "abi": [
    {
      "constant": true,
      "inputs": [
        {
          "name": "",
          "type": "uint256"
        }
      ],
      "name": "tarefas",
      "outputs": [
        {
          "name": "id",
          "type": "uint256"
        },
        {
          "name": "conteudo",
          "type": "string"
        },
        {
          "name": "completada",
          "type": "bool"
        }
      ],
      "payable": false,
      "stateMutability": "view",
      "type": "function"
    },
    {
      "constant": true,
      "inputs": [],
      "name": "contagemDeTarefas",
      "outputs": [
        {
          "name": "",
          "type": "uint256"
        }
      ],
      "payable": false,
      "stateMutability": "view",
      "type": "function"
    },
    {
      "inputs": [],
      "payable": false,
      "stateMutability": "nonpayable",
      "type": "constructor"
    },
    {
      "constant": false,
      "inputs": [
        {
          "name": "_conteudo",
          "type": "string"
        }
      ],
      "name": "criarTarefa",
      "outputs": [],
      "payable": false,
      "stateMutability": "nonpayable",
      "type": "function"
    },
    {
      "constant": false,
      "inputs": [
        {
          "name": "_id",
          "type": "uint256"
        }
      ],
      "name": "alternarCompletada",
      "outputs": [],
      "payable": false,
      "stateMutability": "nonpayable",
      "type": "function"
    }
  ],
  "bytecode": "0x60806040526000805534801561001457600080fd5b50610089606060405190810160405280602381526020017f4163657373652070726f6772616d61646f72626c6f636b636861696e2e636f6d81526020017f2e62720000000000000000000000000000000000000000000000000000000000815250610102640100000000026401000000009004565b6100fd606060405190810160405280603181526020017f43726961722061706c696361c3a7c3a36f20776562207061726120616365737381526020017f6172206e6f73736f20636f6e747261746f000000000000000000000000000000815250610102640100000000026401000000009004565b61023a565b6000808154809291906001019190505550606060405190810160405280600054815260200182815260200160001515815250600160008054815260200190815260200160002060008201518160000155602082015181600101908051906020019061016e929190610195565b5060408201518160020160006101000a81548160ff02191690831515021790555090505050565b828054600181600116156101000203166002900490600052602060002090601f016020900481019282601f106101d657805160ff1916838001178555610204565b82800160010185558215610204579182015b828111156102035782518255916020019190600101906101e8565b5b5090506102119190610215565b5090565b61023791905b8082111561023357600081600090555060010161021b565b5090565b90565b61061f806102496000396000f3fe608060405260043610610062576000357c0100000000000000000000000000000000000000000000000000000000900463ffffffff168063429c0bda14610067578063575050281461012d57806383a512a714610158578063aebe29b614610193575b600080fd5b34801561007357600080fd5b506100a06004803603602081101561008a57600080fd5b810190808035906020019092919050505061025b565b604051808481526020018060200183151515158152602001828103825284818151815260200191508051906020019080838360005b838110156100f05780820151818401526020810190506100d5565b50505050905090810190601f16801561011d5780820380516001836020036101000a031916815260200191505b5094505050505060405180910390f35b34801561013957600080fd5b5061014261032a565b6040518082815260200191505060405180910390f35b34801561016457600080fd5b506101916004803603602081101561017b57600080fd5b8101908080359060200190929190505050610330565b005b34801561019f57600080fd5b50610259600480360360208110156101b657600080fd5b81019080803590602001906401000000008111156101d357600080fd5b8201836020820111156101e557600080fd5b8035906020019184600183028401116401000000008311171561020757600080fd5b91908080601f016020809104026020016040519081016040528093929190818152602001838380828437600081840152601f19601f820116905080830192505050505050509192919290505050610497565b005b6001602052806000526040600020600091509050806000015490806001018054600181600116156101000203166002900480601f01602080910402602001604051908101604052809291908181526020018280546001816001161561010002031660029004801561030d5780601f106102e25761010080835404028352916020019161030d565b820191906000526020600020905b8154815290600101906020018083116102f057829003601f168201915b5050505050908060020160009054906101000a900460ff16905083565b60005481565b61033861052a565b600160008381526020019081526020016000206060604051908101604052908160008201548152602001600182018054600181600116156101000203166002900480601f0160208091040260200160405190810160405280929190818152602001828054600181600116156101000203166002900480156103fa5780601f106103cf576101008083540402835291602001916103fa565b820191906000526020600020905b8154815290600101906020018083116103dd57829003601f168201915b505050505081526020016002820160009054906101000a900460ff1615151515815250509050806040015115816040019015159081151581525050806001600084815260200190815260200160002060008201518160000155602082015181600101908051906020019061046f92919061054e565b5060408201518160020160006101000a81548160ff0219169083151502179055509050505050565b6000808154809291906001019190505550606060405190810160405280600054815260200182815260200160001515815250600160008054815260200190815260200160002060008201518160000155602082015181600101908051906020019061050392919061054e565b5060408201518160020160006101000a81548160ff02191690831515021790555090505050565b60606040519081016040528060008152602001606081526020016000151581525090565b828054600181600116156101000203166002900490600052602060002090601f016020900481019282601f1061058f57805160ff19168380011785556105bd565b828001600101855582156105bd579182015b828111156105bc5782518255916020019190600101906105a1565b5b5090506105ca91906105ce565b5090565b6105f091905b808211156105ec5760008160009055506001016105d4565b5090565b9056fea165627a7a72305820529f732e93cc649a28c8d7f11ed5b05ee2478cd330c03e7399ebad3a5ce4bfdf0029",
  "source": "pragma solidity ^0.5.0;\n\ncontract ListaDeTarefas {\n\tuint public contagemDeTarefas = 0;\n\n\tstruct Tarefa {\n\tuint id;\n\tstring conteudo;\n\tbool completada;\n\t}\n\n\tmapping(uint => Tarefa) public tarefas;\n\n\tfunction criarTarefa(string memory _conteudo) public {\n\tcontagemDeTarefas ++;\n\ttarefas[contagemDeTarefas] = Tarefa(contagemDeTarefas, _conteudo, false);\n\t}\n\n\tconstructor() public {\n\tcriarTarefa('Acesse programadorblockchain.com.br');\n\tcriarTarefa('Criar aplicação web para acessar nosso contrato');\n\t}\n\n\tfunction alternarCompletada(uint _id) public {\n\tTarefa memory _tarefa = tarefas[_id];\n\t_tarefa.completada = !_tarefa.completada;\n\ttarefas[_id] = _tarefa;\n\t}\n}\n",
  "sourcePath": "/home/tutorial-lista-de-tarefas/contracts/ListaDeTarefas.sol",
  "compiler": {
    "name": "solc",
    "version": "0.5.0+commit.1d4f565a.Emscripten.clang"
  },
  "schemaVersion": "3.0.1",
  "updatedAt": "2020-02-10T23:29:00.682Z",
  "devdoc": {
    "methods": {}
  },
  "userdoc": {
    "methods": {}
  }
}