{
  "contractName": "MercadoAberto",
  "abi": [
    {
      "constant": true,
      "inputs": [],
      "name": "contagemDeProdutos",
      "outputs": [
        {
          "name": "",
          "type": "uint256"
        }
      ],
      "payable": false,
      "stateMutability": "view",
      "type": "function",
      "signature": "0x1ca079a6"
    },
    {
      "constant": true,
      "inputs": [
        {
          "name": "",
          "type": "uint256"
        }
      ],
      "name": "compradores",
      "outputs": [
        {
          "name": "conta",
          "type": "address"
        }
      ],
      "payable": false,
      "stateMutability": "view",
      "type": "function",
      "signature": "0x272e365a"
    },
    {
      "constant": true,
      "inputs": [
        {
          "name": "",
          "type": "uint256"
        }
      ],
      "name": "produtos",
      "outputs": [
        {
          "name": "id",
          "type": "uint256"
        },
        {
          "name": "nome",
          "type": "string"
        },
        {
          "name": "preco",
          "type": "uint256"
        },
        {
          "name": "vendedor",
          "type": "address"
        },
        {
          "name": "situacao",
          "type": "uint8"
        }
      ],
      "payable": false,
      "stateMutability": "view",
      "type": "function",
      "signature": "0xf4e595de"
    },
    {
      "constant": false,
      "inputs": [
        {
          "name": "nome",
          "type": "string"
        },
        {
          "name": "preco",
          "type": "uint256"
        }
      ],
      "name": "criarProduto",
      "outputs": [],
      "payable": false,
      "stateMutability": "nonpayable",
      "type": "function",
      "signature": "0x4e7280be"
    },
    {
      "constant": false,
      "inputs": [
        {
          "name": "id",
          "type": "uint256"
        }
      ],
      "name": "confirmarCompra",
      "outputs": [],
      "payable": true,
      "stateMutability": "payable",
      "type": "function",
      "signature": "0x884718b6"
    },
    {
      "constant": false,
      "inputs": [
        {
          "name": "id",
          "type": "uint256"
        }
      ],
      "name": "cancelarCompra",
      "outputs": [],
      "payable": true,
      "stateMutability": "payable",
      "type": "function",
      "signature": "0xa112ceb5"
    },
    {
      "constant": false,
      "inputs": [
        {
          "name": "id",
          "type": "uint256"
        }
      ],
      "name": "confirmarRecebimento",
      "outputs": [],
      "payable": true,
      "stateMutability": "payable",
      "type": "function",
      "signature": "0x2553ac25"
    }
  ],
  "bytecode": "0x60806040526000805534801561001457600080fd5b50611258806100246000396000f3fe608060405260043610610083576000357c0100000000000000000000000000000000000000000000000000000000900463ffffffff1680631ca079a6146100885780632553ac25146100b3578063272e365a146100e15780634e7280be1461015c578063884718b61461022e578063a112ceb51461025c578063f4e595de1461028a575b600080fd5b34801561009457600080fd5b5061009d610394565b6040518082815260200191505060405180910390f35b6100df600480360360208110156100c957600080fd5b810190808035906020019092919050505061039a565b005b3480156100ed57600080fd5b5061011a6004803603602081101561010457600080fd5b8101908080359060200190929190505050610789565b604051808273ffffffffffffffffffffffffffffffffffffffff1673ffffffffffffffffffffffffffffffffffffffff16815260200191505060405180910390f35b34801561016857600080fd5b5061022c6004803603604081101561017f57600080fd5b810190808035906020019064010000000081111561019c57600080fd5b8201836020820111156101ae57600080fd5b803590602001918460018302840111640100000000831117156101d057600080fd5b91908080601f016020809104026020016040519081016040528093929190818152602001838380828437600081840152601f19601f820116905080830192505050505050509192919290803590602001909291905050506107c7565b005b61025a6004803603602081101561024457600080fd5b81019080803590602001909291905050506108ff565b005b6102886004803603602081101561027257600080fd5b8101908080359060200190929190505050610c6e565b005b34801561029657600080fd5b506102c3600480360360208110156102ad57600080fd5b8101908080359060200190929190505050611011565b60405180868152602001806020018581526020018473ffffffffffffffffffffffffffffffffffffffff1673ffffffffffffffffffffffffffffffffffffffff16815260200183600281111561031557fe5b60ff168152602001828103825286818151815260200191508051906020019080838360005b8381101561035557808201518184015260208101905061033a565b50505050905090810190601f1680156103825780820380516001836020036101000a031916815260200191505b50965050505050505060405180910390f35b60005481565b6103a261110c565b6001600083815260200190815260200160002060a0604051908101604052908160008201548152602001600182018054600181600116156101000203166002900480601f0160208091040260200160405190810160405280929190818152602001828054600181600116156101000203166002900480156104645780601f1061043957610100808354040283529160200191610464565b820191906000526020600020905b81548152906001019060200180831161044757829003601f168201915b50505050508152602001600282015481526020016003820160009054906101000a900473ffffffffffffffffffffffffffffffffffffffff1673ffffffffffffffffffffffffffffffffffffffff1673ffffffffffffffffffffffffffffffffffffffff1681526020016003820160149054906101000a900460ff1660028111156104eb57fe5b60028111156104f657fe5b815250509050600081600001511180156105165750600054816000015111155b151561052157600080fd5b61052961115d565b60026000848152602001908152602001600020602060405190810160405290816000820160009054906101000a900473ffffffffffffffffffffffffffffffffffffffff1673ffffffffffffffffffffffffffffffffffffffff1673ffffffffffffffffffffffffffffffffffffffff168152505090503373ffffffffffffffffffffffffffffffffffffffff16816000015173ffffffffffffffffffffffffffffffffffffffff161415156105de57600080fd5b600160028111156105eb57fe5b826080015160028111156105fb57fe5b14151561060757600080fd5b60028260800190600281111561061957fe5b9081600281111561062657fe5b81525050816001600084600001518152602001908152602001600020600082015181600001556020820151816001019080519060200190610668929190611187565b506040820151816002015560608201518160030160006101000a81548173ffffffffffffffffffffffffffffffffffffffff021916908373ffffffffffffffffffffffffffffffffffffffff16021790555060808201518160030160146101000a81548160ff021916908360028111156106de57fe5b0217905550905050806000015173ffffffffffffffffffffffffffffffffffffffff166108fc83604001519081150290604051600060405180830381858888f19350505050158015610734573d6000803e3d6000fd5b50816060015173ffffffffffffffffffffffffffffffffffffffff166108fc83604001519081150290604051600060405180830381858888f19350505050158015610783573d6000803e3d6000fd5b50505050565b60026020528060005260406000206000915090508060000160009054906101000a900473ffffffffffffffffffffffffffffffffffffffff16905081565b600082511115156107d757600080fd5b6000811115156107e657600080fd5b600080815480929190600101919050555060a06040519081016040528060005481526020018381526020018281526020013373ffffffffffffffffffffffffffffffffffffffff1681526020016000600281111561084057fe5b815250600160008054815260200190815260200160002060008201518160000155602082015181600101908051906020019061087d929190611187565b506040820151816002015560608201518160030160006101000a81548173ffffffffffffffffffffffffffffffffffffffff021916908373ffffffffffffffffffffffffffffffffffffffff16021790555060808201518160030160146101000a81548160ff021916908360028111156108f357fe5b02179055509050505050565b61090761110c565b6001600083815260200190815260200160002060a0604051908101604052908160008201548152602001600182018054600181600116156101000203166002900480601f0160208091040260200160405190810160405280929190818152602001828054600181600116156101000203166002900480156109c95780601f1061099e576101008083540402835291602001916109c9565b820191906000526020600020905b8154815290600101906020018083116109ac57829003601f168201915b50505050508152602001600282015481526020016003820160009054906101000a900473ffffffffffffffffffffffffffffffffffffffff1673ffffffffffffffffffffffffffffffffffffffff1673ffffffffffffffffffffffffffffffffffffffff1681526020016003820160149054906101000a900460ff166002811115610a5057fe5b6002811115610a5b57fe5b81525050905060008160000151118015610a7b5750600054816000015111155b1515610a8657600080fd5b60028160400151023410151515610a9c57600080fd5b60006002811115610aa957fe5b81608001516002811115610ab957fe5b141515610ac557600080fd5b3373ffffffffffffffffffffffffffffffffffffffff16816060015173ffffffffffffffffffffffffffffffffffffffff1614151515610b0457600080fd5b600181608001906002811115610b1657fe5b90816002811115610b2357fe5b81525050806001600083600001518152602001908152602001600020600082015181600001556020820151816001019080519060200190610b65929190611187565b506040820151816002015560608201518160030160006101000a81548173ffffffffffffffffffffffffffffffffffffffff021916908373ffffffffffffffffffffffffffffffffffffffff16021790555060808201518160030160146101000a81548160ff02191690836002811115610bdb57fe5b02179055509050506020604051908101604052803373ffffffffffffffffffffffffffffffffffffffff16815250600260008360000151815260200190815260200160002060008201518160000160006101000a81548173ffffffffffffffffffffffffffffffffffffffff021916908373ffffffffffffffffffffffffffffffffffffffff1602179055509050505050565b610c7661110c565b6001600083815260200190815260200160002060a0604051908101604052908160008201548152602001600182018054600181600116156101000203166002900480601f016020809104026020016040519081016040528092919081815260200182805460018160011615610100020316600290048015610d385780601f10610d0d57610100808354040283529160200191610d38565b820191906000526020600020905b815481529060010190602001808311610d1b57829003601f168201915b50505050508152602001600282015481526020016003820160009054906101000a900473ffffffffffffffffffffffffffffffffffffffff1673ffffffffffffffffffffffffffffffffffffffff1673ffffffffffffffffffffffffffffffffffffffff1681526020016003820160149054906101000a900460ff166002811115610dbf57fe5b6002811115610dca57fe5b81525050905060008160000151118015610dea5750600054816000015111155b1515610df557600080fd5b3373ffffffffffffffffffffffffffffffffffffffff16816060015173ffffffffffffffffffffffffffffffffffffffff16141515610e3357600080fd5b60016002811115610e4057fe5b81608001516002811115610e5057fe5b141515610e5c57600080fd5b600081608001906002811115610e6e57fe5b90816002811115610e7b57fe5b81525050806001600083600001518152602001908152602001600020600082015181600001556020820151816001019080519060200190610ebd929190611187565b506040820151816002015560608201518160030160006101000a81548173ffffffffffffffffffffffffffffffffffffffff021916908373ffffffffffffffffffffffffffffffffffffffff16021790555060808201518160030160146101000a81548160ff02191690836002811115610f3357fe5b0217905550905050610f4361115d565b60026000848152602001908152602001600020602060405190810160405290816000820160009054906101000a900473ffffffffffffffffffffffffffffffffffffffff1673ffffffffffffffffffffffffffffffffffffffff1673ffffffffffffffffffffffffffffffffffffffff16815250509050806000015173ffffffffffffffffffffffffffffffffffffffff166108fc60028460400151029081150290604051600060405180830381858888f1935050505015801561100b573d6000803e3d6000fd5b50505050565b6001602052806000526040600020600091509050806000015490806001018054600181600116156101000203166002900480601f0160208091040260200160405190810160405280929190818152602001828054600181600116156101000203166002900480156110c35780601f10611098576101008083540402835291602001916110c3565b820191906000526020600020905b8154815290600101906020018083116110a657829003601f168201915b5050505050908060020154908060030160009054906101000a900473ffffffffffffffffffffffffffffffffffffffff16908060030160149054906101000a900460ff16905085565b60a060405190810160405280600081526020016060815260200160008152602001600073ffffffffffffffffffffffffffffffffffffffff1681526020016000600281111561115757fe5b81525090565b602060405190810160405280600073ffffffffffffffffffffffffffffffffffffffff1681525090565b828054600181600116156101000203166002900490600052602060002090601f016020900481019282601f106111c857805160ff19168380011785556111f6565b828001600101855582156111f6579182015b828111156111f55782518255916020019190600101906111da565b5b5090506112039190611207565b5090565b61122991905b8082111561122557600081600090555060010161120d565b5090565b9056fea165627a7a723058208e48db9d3aaa4da68ae5b0d6616a88c8488b116b37d04e11e38c0c492f3a58b50029",
  "source": "pragma solidity >=0.5.0 <0.7.0;\n\ncontract MercadoAberto {\n\n\t// Declaração do tipo enum\n\tenum Situacao { Disponivel, Travado, Vendido }\n\t// Total de produtos público\n\tuint public contagemDeProdutos = 0;\n\n\t// Declaração de um tipo complexo\n\tstruct Produto {\n\t\tuint id; // identificação do produto\n\t\tstring nome; // nome do produto\n\t\tuint preco; // preço do produto em Gas\n\t\taddress payable vendedor; // endereço público do dono do produto\n\t\tSituacao situacao;\n\t}\n\t// a palavra chave payable permite ao contrato enviar Ether para essa conta\n\n\tstruct Comprador {\n\t\taddress payable conta;\n\t}\n\n\t// Mapeamento uma lista por id de produtos na váriavel 'produtos' e 'compradores' com acesso público\n\tmapping(uint => Produto) public produtos;\n\tmapping(uint => Comprador) public compradores;\n\n\t// Função para criar produtos\n\tfunction criarProduto(string memory nome, uint preco) public {\n\t\t// Requer um nome válido\n\t\trequire(bytes(nome).length > 0);\n\t\t// Requer um preço válido\n\t\trequire(preco > 0);\n\t\t// Incrementa o total de produtos\n\t\tcontagemDeProdutos ++;\n\t\t// Criando um produto \n\t\t// msg.sender é uma variável global do contrato com o endereço de quem está chamado esse contrato\n\t\tprodutos[contagemDeProdutos] = Produto(contagemDeProdutos, nome, preco, msg.sender, Situacao.Disponivel);\n\t}\n\n\tfunction confirmarCompra(uint id) payable public {\n\t\t// Recuperando produto \n\t\t// palavra chave memory, faz uso da memoria temporaria\n\t\tProduto memory produto = produtos[id];\n\n\t\t// validações\n\t\t// Validando se o produto é válido \n\t\trequire(produto.id > 0 && produto.id <= contagemDeProdutos);\n\t\t// Validando se tem Ether suficiente, nocaso vamos segurar o dobro do valor \n\t\t// para garantir a entraega e confirmação\n\t\trequire(msg.value >= (produto.preco * 2));\n\t\t// Validando se o produto não foi comprado \n\t\trequire(produto.situacao == Situacao.Disponivel);\n\t\t// Validando que o comprado não é o vendedor\n\t\trequire(produto.vendedor != msg.sender);\n\n\t\t// alterando situacao \n\t\tproduto.situacao = Situacao.Travado;\n\t\t// alterando lista de produtos\n\t\tprodutos[produto.id] = produto;\n\t\t// criando um comprador para esse produto enquanto em processo\n\t\tcompradores[produto.id] = Comprador(msg.sender);\n\t\n\t}\n\n\tfunction cancelarCompra(uint id) payable public {\n\t\tProduto memory produto = produtos[id];\n\t\trequire(produto.id > 0 && produto.id <= contagemDeProdutos);\n\n\t\t// somente o vendendor pode cancelar\n\t\trequire(produto.vendedor == msg.sender);\n\t\t// produto travado\n\t\trequire(produto.situacao == Situacao.Travado);\n\n\t\t// alterando situacao \n\t\tproduto.situacao = Situacao.Disponivel;\n\t\t// alterando lista de produtos\n\t\tprodutos[produto.id] = produto;\n\t\n\t\tComprador memory comprador = compradores[id];\n\t\tcomprador.conta.transfer((produto.preco * 2));\n\t}\n\n\tfunction confirmarRecebimento(uint id) payable public {\n\t\tProduto memory produto = produtos[id];\n\t\trequire(produto.id > 0 && produto.id <= contagemDeProdutos);\n\t\tComprador memory comprador = compradores[id];\n\t\t\n\t\t// somente o comprador pode confirmar\n\t\trequire(comprador.conta == msg.sender);\n\t\t// produto travado\n\t\trequire(produto.situacao == Situacao.Travado);\n\n\t\t// alterando situacao \n\t\tproduto.situacao = Situacao.Vendido;\n\t\t// alterando lista de produtos\n\t\tprodutos[produto.id] = produto;\n\n\t\t// tranferido  valor de compra ao vendedor\n\t\t// e deveolvendo o valor de seguro ao comprador\n\t\tcomprador.conta.transfer(produto.preco);\n\t\tproduto.vendedor.transfer(produto.preco);\n\t}\n\n}\n",
  "sourcePath": "/home/tutorial-lista-de-tarefas/contracts/MercadoAberto.sol",
  "compiler": {
    "name": "solc",
    "version": "0.5.0+commit.1d4f565a.Emscripten.clang"
  },
  "schemaVersion": "3.0.1",
  "updatedAt": "2020-02-13T16:46:30.866Z",
  "devdoc": {
    "methods": {}
  },
  "userdoc": {
    "methods": {}
  }
}